{
  "_format": "hh-sol-artifact-1",
  "contractName": "DocumentVersionControl",
  "sourceName": "contracts/DocumentVersionControl.sol",
  "abi": [
    {
      "anonymous": false,
      "inputs": [
        {
          "indexed": true,
          "internalType": "string",
          "name": "documentId",
          "type": "string"
        },
        {
          "indexed": false,
          "internalType": "string",
          "name": "ipfsCid",
          "type": "string"
        },
        {
          "indexed": false,
          "internalType": "string",
          "name": "documentHash",
          "type": "string"
        },
        {
          "indexed": false,
          "internalType": "uint256",
          "name": "timestamp",
          "type": "uint256"
        },
        {
          "indexed": false,
          "internalType": "address",
          "name": "uploader",
          "type": "address"
        },
        {
          "indexed": false,
          "internalType": "string",
          "name": "versionNotes",
          "type": "string"
        }
      ],
      "name": "NewVersionAdded",
      "type": "event"
    },
    {
      "inputs": [
        {
          "internalType": "string",
          "name": "",
          "type": "string"
        },
        {
          "internalType": "uint256",
          "name": "",
          "type": "uint256"
        }
      ],
      "name": "documentHistory",
      "outputs": [
        {
          "internalType": "string",
          "name": "ipfsCid",
          "type": "string"
        },
        {
          "internalType": "string",
          "name": "documentHash",
          "type": "string"
        },
        {
          "internalType": "uint256",
          "name": "timestamp",
          "type": "uint256"
        },
        {
          "internalType": "address",
          "name": "uploader",
          "type": "address"
        },
        {
          "internalType": "string",
          "name": "versionNotes",
          "type": "string"
        }
      ],
      "stateMutability": "view",
      "type": "function"
    },
    {
      "inputs": [
        {
          "internalType": "string",
          "name": "_documentId",
          "type": "string"
        }
      ],
      "name": "getDocumentHistory",
      "outputs": [
        {
          "internalType": "string[]",
          "name": "ipfsCids",
          "type": "string[]"
        },
        {
          "internalType": "string[]",
          "name": "documentHashes",
          "type": "string[]"
        },
        {
          "internalType": "uint256[]",
          "name": "timestamps",
          "type": "uint256[]"
        },
        {
          "internalType": "address[]",
          "name": "uploaders",
          "type": "address[]"
        },
        {
          "internalType": "string[]",
          "name": "versionNotes",
          "type": "string[]"
        }
      ],
      "stateMutability": "view",
      "type": "function"
    },
    {
      "inputs": [
        {
          "internalType": "string",
          "name": "_documentId",
          "type": "string"
        }
      ],
      "name": "getLatestVersion",
      "outputs": [
        {
          "internalType": "string",
          "name": "ipfsCid",
          "type": "string"
        },
        {
          "internalType": "string",
          "name": "documentHash",
          "type": "string"
        },
        {
          "internalType": "uint256",
          "name": "timestamp",
          "type": "uint256"
        },
        {
          "internalType": "address",
          "name": "uploader",
          "type": "address"
        },
        {
          "internalType": "string",
          "name": "versionNotes",
          "type": "string"
        }
      ],
      "stateMutability": "view",
      "type": "function"
    },
    {
      "inputs": [
        {
          "internalType": "string",
          "name": "_documentId",
          "type": "string"
        },
        {
          "internalType": "string",
          "name": "_ipfsCid",
          "type": "string"
        },
        {
          "internalType": "string",
          "name": "_documentHash",
          "type": "string"
        },
        {
          "internalType": "string",
          "name": "_versionNotes",
          "type": "string"
        }
      ],
      "name": "uploadNewVersion",
      "outputs": [],
      "stateMutability": "nonpayable",
      "type": "function"
    }
  ],
  "bytecode": "0x608060405234801561001057600080fd5b50611a8a806100206000396000f3fe608060405234801561001057600080fd5b506004361061004c5760003560e01c80634f4e13cb14610051578063686eb2341461006d57806372e69752146100a1578063cae96761146100d5575b600080fd5b61006b60048036038101906100669190610e8c565b610109565b005b61008760048036038101906100829190610f99565b61034f565b6040516100989594939291906110c4565b60405180910390f35b6100bb60048036038101906100b6919061112c565b610570565b6040516100cc9594939291906113fd565b60405180910390f35b6100ef60048036038101906100ea919061112c565b610a86565b6040516101009594939291906110c4565b60405180910390f35b600084511161014d576040517f08c379a0000000000000000000000000000000000000000000000000000000008152600401610144906114bf565b60405180910390fd5b6000825111610191576040517f08c379a00000000000000000000000000000000000000000000000000000000081526004016101889061152b565b60405180910390fd5b60008351116101d5576040517f08c379a00000000000000000000000000000000000000000000000000000000081526004016101cc90611597565b60405180910390fd5b60006040518060a001604052808581526020018481526020014281526020013373ffffffffffffffffffffffffffffffffffffffff16815260200183815250905060008560405161022691906115f3565b908152602001604051809103902081908060018154018082558091505060019003906000526020600020906005020160009091909190915060008201518160000190816102739190611816565b5060208201518160010190816102899190611816565b506040820151816002015560608201518160030160006101000a81548173ffffffffffffffffffffffffffffffffffffffff021916908373ffffffffffffffffffffffffffffffffffffffff16021790555060808201518160040190816102f09190611816565b5050508460405161030191906115f3565b60405180910390207fdd08bffde66d1b58adca2114319488ec37caaa7d9943b6d1a198be4e316f8d5a85854233876040516103409594939291906110c4565b60405180910390a25050505050565b600082805160208101820180518482526020830160208501208183528095505050505050818154811061038157600080fd5b9060005260206000209060050201600091509150508060000180546103a590611639565b80601f01602080910402602001604051908101604052809291908181526020018280546103d190611639565b801561041e5780601f106103f35761010080835404028352916020019161041e565b820191906000526020600020905b81548152906001019060200180831161040157829003601f168201915b50505050509080600101805461043390611639565b80601f016020809104026020016040519081016040528092919081815260200182805461045f90611639565b80156104ac5780601f10610481576101008083540402835291602001916104ac565b820191906000526020600020905b81548152906001019060200180831161048f57829003601f168201915b5050505050908060020154908060030160009054906101000a900473ffffffffffffffffffffffffffffffffffffffff16908060040180546104ed90611639565b80601f016020809104026020016040519081016040528092919081815260200182805461051990611639565b80156105665780601f1061053b57610100808354040283529160200191610566565b820191906000526020600020905b81548152906001019060200180831161054957829003601f168201915b5050505050905085565b60608060608060606000808760405161058991906115f3565b9081526020016040518091039020805490509050600081116105e0576040517f08c379a00000000000000000000000000000000000000000000000000000000081526004016105d79061195a565b60405180910390fd5b60008167ffffffffffffffff8111156105fc576105fb610d61565b5b60405190808252806020026020018201604052801561062f57816020015b606081526020019060019003908161061a5790505b50905060008267ffffffffffffffff81111561064e5761064d610d61565b5b60405190808252806020026020018201604052801561068157816020015b606081526020019060019003908161066c5790505b50905060008367ffffffffffffffff8111156106a05761069f610d61565b5b6040519080825280602002602001820160405280156106ce5781602001602082028036833780820191505090505b50905060008467ffffffffffffffff8111156106ed576106ec610d61565b5b60405190808252806020026020018201604052801561071b5781602001602082028036833780820191505090505b50905060008567ffffffffffffffff81111561073a57610739610d61565b5b60405190808252806020026020018201604052801561076d57816020015b60608152602001906001900390816107585790505b50905060005b86811015610a67576000808e60405161078c91906115f3565b908152602001604051809103902082815481106107ac576107ab61197a565b5b906000526020600020906005020190508060000180546107cb90611639565b80601f01602080910402602001604051908101604052809291908181526020018280546107f790611639565b80156108445780601f1061081957610100808354040283529160200191610844565b820191906000526020600020905b81548152906001019060200180831161082757829003601f168201915b505050505087838151811061085c5761085b61197a565b5b602002602001018190525080600101805461087690611639565b80601f01602080910402602001604051908101604052809291908181526020018280546108a290611639565b80156108ef5780601f106108c4576101008083540402835291602001916108ef565b820191906000526020600020905b8154815290600101906020018083116108d257829003601f168201915b50505050508683815181106109075761090661197a565b5b6020026020010181905250806002015485838151811061092a5761092961197a565b5b6020026020010181815250508060030160009054906101000a900473ffffffffffffffffffffffffffffffffffffffff1684838151811061096e5761096d61197a565b5b602002602001019073ffffffffffffffffffffffffffffffffffffffff16908173ffffffffffffffffffffffffffffffffffffffff16815250508060040180546109b790611639565b80601f01602080910402602001604051908101604052809291908181526020018280546109e390611639565b8015610a305780601f10610a0557610100808354040283529160200191610a30565b820191906000526020600020905b815481529060010190602001808311610a1357829003601f168201915b5050505050838381518110610a4857610a4761197a565b5b6020026020010181905250508080610a5f906119d8565b915050610773565b5084848484849a509a509a509a509a5050505050505091939590929450565b606080600080606060008087604051610a9f91906115f3565b908152602001604051809103902080549050905060008111610af6576040517f08c379a0000000000000000000000000000000000000000000000000000000008152600401610aed9061195a565b60405180910390fd5b60008088604051610b0791906115f3565b9081526020016040518091039020600183610b229190611a20565b81548110610b3357610b3261197a565b5b90600052602060002090600502019050806000018160010182600201548360030160009054906101000a900473ffffffffffffffffffffffffffffffffffffffff1684600401848054610b8590611639565b80601f0160208091040260200160405190810160405280929190818152602001828054610bb190611639565b8015610bfe5780601f10610bd357610100808354040283529160200191610bfe565b820191906000526020600020905b815481529060010190602001808311610be157829003601f168201915b50505050509450838054610c1190611639565b80601f0160208091040260200160405190810160405280929190818152602001828054610c3d90611639565b8015610c8a5780601f10610c5f57610100808354040283529160200191610c8a565b820191906000526020600020905b815481529060010190602001808311610c6d57829003601f168201915b50505050509350808054610c9d90611639565b80601f0160208091040260200160405190810160405280929190818152602001828054610cc990611639565b8015610d165780601f10610ceb57610100808354040283529160200191610d16565b820191906000526020600020905b815481529060010190602001808311610cf957829003601f168201915b5050505050905096509650965096509650505091939590929450565b6000604051905090565b600080fd5b600080fd5b600080fd5b600080fd5b6000601f19601f8301169050919050565b7f4e487b7100000000000000000000000000000000000000000000000000000000600052604160045260246000fd5b610d9982610d50565b810181811067ffffffffffffffff82111715610db857610db7610d61565b5b80604052505050565b6000610dcb610d32565b9050610dd78282610d90565b919050565b600067ffffffffffffffff821115610df757610df6610d61565b5b610e0082610d50565b9050602081019050919050565b82818337600083830152505050565b6000610e2f610e2a84610ddc565b610dc1565b905082815260208101848484011115610e4b57610e4a610d4b565b5b610e56848285610e0d565b509392505050565b600082601f830112610e7357610e72610d46565b5b8135610e83848260208601610e1c565b91505092915050565b60008060008060808587031215610ea657610ea5610d3c565b5b600085013567ffffffffffffffff811115610ec457610ec3610d41565b5b610ed087828801610e5e565b945050602085013567ffffffffffffffff811115610ef157610ef0610d41565b5b610efd87828801610e5e565b935050604085013567ffffffffffffffff811115610f1e57610f1d610d41565b5b610f2a87828801610e5e565b925050606085013567ffffffffffffffff811115610f4b57610f4a610d41565b5b610f5787828801610e5e565b91505092959194509250565b6000819050919050565b610f7681610f63565b8114610f8157600080fd5b50565b600081359050610f9381610f6d565b92915050565b60008060408385031215610fb057610faf610d3c565b5b600083013567ffffffffffffffff811115610fce57610fcd610d41565b5b610fda85828601610e5e565b9250506020610feb85828601610f84565b9150509250929050565b600081519050919050565b600082825260208201905092915050565b60005b8381101561102f578082015181840152602081019050611014565b60008484015250505050565b600061104682610ff5565b6110508185611000565b9350611060818560208601611011565b61106981610d50565b840191505092915050565b61107d81610f63565b82525050565b600073ffffffffffffffffffffffffffffffffffffffff82169050919050565b60006110ae82611083565b9050919050565b6110be816110a3565b82525050565b600060a08201905081810360008301526110de818861103b565b905081810360208301526110f2818761103b565b90506111016040830186611074565b61110e60608301856110b5565b8181036080830152611120818461103b565b90509695505050505050565b60006020828403121561114257611141610d3c565b5b600082013567ffffffffffffffff8111156111605761115f610d41565b5b61116c84828501610e5e565b91505092915050565b600081519050919050565b600082825260208201905092915050565b6000819050602082019050919050565b600082825260208201905092915050565b60006111bd82610ff5565b6111c781856111a1565b93506111d7818560208601611011565b6111e081610d50565b840191505092915050565b60006111f783836111b2565b905092915050565b6000602082019050919050565b600061121782611175565b6112218185611180565b93508360208202850161123385611191565b8060005b8581101561126f578484038952815161125085826111eb565b945061125b836111ff565b925060208a01995050600181019050611237565b50829750879550505050505092915050565b600081519050919050565b600082825260208201905092915050565b6000819050602082019050919050565b6112b681610f63565b82525050565b60006112c883836112ad565b60208301905092915050565b6000602082019050919050565b60006112ec82611281565b6112f6818561128c565b93506113018361129d565b8060005b8381101561133257815161131988826112bc565b9750611324836112d4565b925050600181019050611305565b5085935050505092915050565b600081519050919050565b600082825260208201905092915050565b6000819050602082019050919050565b611374816110a3565b82525050565b6000611386838361136b565b60208301905092915050565b6000602082019050919050565b60006113aa8261133f565b6113b4818561134a565b93506113bf8361135b565b8060005b838110156113f05781516113d7888261137a565b97506113e283611392565b9250506001810190506113c3565b5085935050505092915050565b600060a0820190508181036000830152611417818861120c565b9050818103602083015261142b818761120c565b9050818103604083015261143f81866112e1565b90508181036060830152611453818561139f565b90508181036080830152611467818461120c565b90509695505050505050565b7f446f63756d656e742049442063616e6e6f7420626520656d7074790000000000600082015250565b60006114a9601b83611000565b91506114b482611473565b602082019050919050565b600060208201905081810360008301526114d88161149c565b9050919050565b7f446f63756d656e7420686173682063616e6e6f7420626520656d707479000000600082015250565b6000611515601d83611000565b9150611520826114df565b602082019050919050565b6000602082019050818103600083015261154481611508565b9050919050565b7f49504653204349442063616e6e6f7420626520656d7074790000000000000000600082015250565b6000611581601883611000565b915061158c8261154b565b602082019050919050565b600060208201905081810360008301526115b081611574565b9050919050565b600081905092915050565b60006115cd82610ff5565b6115d781856115b7565b93506115e7818560208601611011565b80840191505092915050565b60006115ff82846115c2565b915081905092915050565b7f4e487b7100000000000000000000000000000000000000000000000000000000600052602260045260246000fd5b6000600282049050600182168061165157607f821691505b6020821081036116645761166361160a565b5b50919050565b60008190508160005260206000209050919050565b60006020601f8301049050919050565b600082821b905092915050565b6000600883026116cc7fffffffffffffffffffffffffffffffffffffffffffffffffffffffffffffffff8261168f565b6116d6868361168f565b95508019841693508086168417925050509392505050565b6000819050919050565b600061171361170e61170984610f63565b6116ee565b610f63565b9050919050565b6000819050919050565b61172d836116f8565b6117416117398261171a565b84845461169c565b825550505050565b600090565b611756611749565b611761818484611724565b505050565b5b818110156117855761177a60008261174e565b600181019050611767565b5050565b601f8211156117ca5761179b8161166a565b6117a48461167f565b810160208510156117b3578190505b6117c76117bf8561167f565b830182611766565b50505b505050565b600082821c905092915050565b60006117ed600019846008026117cf565b1980831691505092915050565b600061180683836117dc565b9150826002028217905092915050565b61181f82610ff5565b67ffffffffffffffff81111561183857611837610d61565b5b6118428254611639565b61184d828285611789565b600060209050601f831160018114611880576000841561186e578287015190505b61187885826117fa565b8655506118e0565b601f19841661188e8661166a565b60005b828110156118b657848901518255600182019150602085019450602081019050611891565b868310156118d357848901516118cf601f8916826117dc565b8355505b6001600288020188555050505b505050505050565b7f4e6f20686973746f727920666f756e6420666f72207468697320646f63756d6560008201527f6e74204944000000000000000000000000000000000000000000000000000000602082015250565b6000611944602583611000565b915061194f826118e8565b604082019050919050565b6000602082019050818103600083015261197381611937565b9050919050565b7f4e487b7100000000000000000000000000000000000000000000000000000000600052603260045260246000fd5b7f4e487b7100000000000000000000000000000000000000000000000000000000600052601160045260246000fd5b60006119e382610f63565b91507fffffffffffffffffffffffffffffffffffffffffffffffffffffffffffffffff8203611a1557611a146119a9565b5b600182019050919050565b6000611a2b82610f63565b9150611a3683610f63565b9250828203905081811115611a4e57611a4d6119a9565b5b9291505056fea2646970667358221220fa78f86bf8537c3b293f692466eb805e9a6cc18d74a7a6008f2ed1e03a34b5dd64736f6c63430008140033",
  "linkReferences": {},
  "deployedLinkReferences": {}
}